{
  "_format": "hh-sol-artifact-1",
  "contractName": "ArenaPvP",
  "sourceName": "contracts/ArenaPvP.sol",
  "abi": [
    {
      "inputs": [
        {
          "internalType": "contract ArenaCoin",
          "name": "_arenaCoin",
          "type": "address"
        },
        {
          "internalType": "contract ArenaChampion",
          "name": "_arenaChampion",
          "type": "address"
        }
      ],
      "stateMutability": "nonpayable",
      "type": "constructor"
    },
    {
      "inputs": [
        {
          "internalType": "address",
          "name": "owner",
          "type": "address"
        }
      ],
      "name": "OwnableInvalidOwner",
      "type": "error"
    },
    {
      "inputs": [
        {
          "internalType": "address",
          "name": "account",
          "type": "address"
        }
      ],
      "name": "OwnableUnauthorizedAccount",
      "type": "error"
    },
    {
      "inputs": [],
      "name": "ReentrancyGuardReentrantCall",
      "type": "error"
    },
    {
      "anonymous": false,
      "inputs": [
        {
          "indexed": true,
          "internalType": "uint256",
          "name": "challengeId",
          "type": "uint256"
        },
        {
          "indexed": true,
          "internalType": "address",
          "name": "winner",
          "type": "address"
        },
        {
          "indexed": true,
          "internalType": "address",
          "name": "loser",
          "type": "address"
        },
        {
          "indexed": false,
          "internalType": "uint256",
          "name": "prize",
          "type": "uint256"
        }
      ],
      "name": "BattleResolved",
      "type": "event"
    },
    {
      "anonymous": false,
      "inputs": [
        {
          "indexed": true,
          "internalType": "uint256",
          "name": "challengeId",
          "type": "uint256"
        },
        {
          "indexed": true,
          "internalType": "address",
          "name": "challenger",
          "type": "address"
        },
        {
          "indexed": false,
          "internalType": "uint256",
          "name": "championId",
          "type": "uint256"
        }
      ],
      "name": "ChallengeCreated",
      "type": "event"
    },
    {
      "anonymous": false,
      "inputs": [
        {
          "indexed": true,
          "internalType": "address",
          "name": "previousOwner",
          "type": "address"
        },
        {
          "indexed": true,
          "internalType": "address",
          "name": "newOwner",
          "type": "address"
        }
      ],
      "name": "OwnershipTransferred",
      "type": "event"
    },
    {
      "inputs": [
        {
          "internalType": "uint256",
          "name": "challengeId",
          "type": "uint256"
        },
        {
          "internalType": "uint256",
          "name": "myChampionId",
          "type": "uint256"
        }
      ],
      "name": "acceptChallenge",
      "outputs": [],
      "stateMutability": "nonpayable",
      "type": "function"
    },
    {
      "inputs": [],
      "name": "arenaChampion",
      "outputs": [
        {
          "internalType": "contract ArenaChampion",
          "name": "",
          "type": "address"
        }
      ],
      "stateMutability": "view",
      "type": "function"
    },
    {
      "inputs": [],
      "name": "arenaCoin",
      "outputs": [
        {
          "internalType": "contract ArenaCoin",
          "name": "",
          "type": "address"
        }
      ],
      "stateMutability": "view",
      "type": "function"
    },
    {
      "inputs": [
        {
          "internalType": "uint256",
          "name": "",
          "type": "uint256"
        }
      ],
      "name": "challenges",
      "outputs": [
        {
          "internalType": "address",
          "name": "challenger",
          "type": "address"
        },
        {
          "internalType": "uint256",
          "name": "challengerChampionId",
          "type": "uint256"
        },
        {
          "internalType": "bool",
          "name": "active",
          "type": "bool"
        }
      ],
      "stateMutability": "view",
      "type": "function"
    },
    {
      "inputs": [
        {
          "internalType": "uint256",
          "name": "championId",
          "type": "uint256"
        }
      ],
      "name": "createChallenge",
      "outputs": [],
      "stateMutability": "nonpayable",
      "type": "function"
    },
    {
      "inputs": [],
      "name": "nextChallengeId",
      "outputs": [
        {
          "internalType": "uint256",
          "name": "",
          "type": "uint256"
        }
      ],
      "stateMutability": "view",
      "type": "function"
    },
    {
      "inputs": [],
      "name": "owner",
      "outputs": [
        {
          "internalType": "address",
          "name": "",
          "type": "address"
        }
      ],
      "stateMutability": "view",
      "type": "function"
    },
    {
      "inputs": [],
      "name": "renounceOwnership",
      "outputs": [],
      "stateMutability": "nonpayable",
      "type": "function"
    },
    {
      "inputs": [
        {
          "internalType": "uint256",
          "name": "amount",
          "type": "uint256"
        }
      ],
      "name": "setWagerAmount",
      "outputs": [],
      "stateMutability": "nonpayable",
      "type": "function"
    },
    {
      "inputs": [
        {
          "internalType": "address",
          "name": "newOwner",
          "type": "address"
        }
      ],
      "name": "transferOwnership",
      "outputs": [],
      "stateMutability": "nonpayable",
      "type": "function"
    },
    {
      "inputs": [],
      "name": "wagerAmount",
      "outputs": [
        {
          "internalType": "uint256",
          "name": "",
          "type": "uint256"
        }
      ],
      "stateMutability": "view",
      "type": "function"
    },
    {
      "inputs": [
        {
          "internalType": "uint256",
          "name": "amount",
          "type": "uint256"
        }
      ],
      "name": "withdraw",
      "outputs": [],
      "stateMutability": "nonpayable",
      "type": "function"
    }
  ],
  "bytecode": "0x6080604052674563918244f400006003556001600555348015610020575f80fd5b50604051610e84380380610e8483398101604081905261003f91610129565b338061006457604051631e4fbdf760e01b81525f600482015260240160405180910390fd5b61006d816100c3565b5060017f9b779b17422d0df92223018b32b4d1fa46e071723d6817e2486d003becc55f0055600180546001600160a01b039384166001600160a01b03199182161790915560028054929093169116179055610161565b5f80546001600160a01b038381166001600160a01b0319831681178455604051919092169283917f8be0079c531659141344cd1fd0a4f28419497f9722a3daafe3b4186f6b6457e09190a35050565b6001600160a01b0381168114610126575f80fd5b50565b5f806040838503121561013a575f80fd5b825161014581610112565b602084015190925061015681610112565b809150509250929050565b610d168061016e5f395ff3fe608060405234801561000f575f80fd5b50600436106100b1575f3560e01c80638da5cb5b1161006e5780638da5cb5b1461013f5780638f1d37761461014f5780639264180b146101b1578063f2fde38b146101c4578063fc67aa50146101d7578063ffd924a6146101e0575f80fd5b8063131178ac146100b55780632e1a7d4d146100ca57806348f7d5ab146100dd57806349de47041461010d5780635b5f681d14610124578063715018a614610137575b5f80fd5b6100c86100c3366004610b55565b6101f3565b005b6100c86100d8366004610b75565b610701565b6001546100f0906001600160a01b031681565b6040516001600160a01b0390911681526020015b60405180910390f35b61011660035481565b604051908152602001610104565b6002546100f0906001600160a01b031681565b6100c861077b565b5f546001600160a01b03166100f0565b61018a61015d366004610b75565b60046020525f90815260409020805460018201546002909201546001600160a01b03909116919060ff1683565b604080516001600160a01b0390941684526020840192909252151590820152606001610104565b6100c86101bf366004610b75565b61078e565b6100c86101d2366004610ba0565b610a20565b61011660055481565b6100c86101ee366004610b75565b610a5d565b6101fb610a6a565b5f828152600460205260409020600281015460ff166102585760405162461bcd60e51b81526020600482015260146024820152734368616c6c656e6765206e6f742061637469766560601b60448201526064015b60405180910390fd5b8054336001600160a01b03909116036102ab5760405162461bcd60e51b815260206004820152601560248201527421b0b73737ba103334b3b43a103cb7bab939b2b63360591b604482015260640161024f565b6002546040516331a9108f60e11b81526004810184905233916001600160a01b031690636352211e90602401602060405180830381865afa1580156102f2573d5f803e3d5ffd5b505050506040513d601f19601f820116820180604052508101906103169190610bc2565b6001600160a01b0316146103605760405162461bcd60e51b81526020600482015260116024820152702737ba103cb7bab91031b430b6b834b7b760791b604482015260640161024f565b6003546001546040516370a0823160e01b81523360048201526001600160a01b03909116906370a0823190602401602060405180830381865afa1580156103a9573d5f803e3d5ffd5b505050506040513d601f19601f820116820180604052508101906103cd9190610bdd565b10156104105760405162461bcd60e51b8152602060048201526012602482015271496e73756666696369656e74204152454e4160701b604482015260640161024f565b6001546003546040516323b872dd60e01b815233600482015230602482015260448101919091526001600160a01b03909116906323b872dd906064016020604051808303815f875af1158015610468573d5f803e3d5ffd5b505050506040513d601f19601f8201168201806040525081019061048c9190610bf4565b506002818101805460ff19169055546001820154604051632fb3053d60e21b815260048101919091525f916001600160a01b03169063becc14f490602401606060405180830381865afa1580156104e5573d5f803e3d5ffd5b505050506040513d601f19601f820116820180604052508101906105099190610c13565b600254604051632fb3053d60e21b8152600481018690529192505f916001600160a01b039091169063becc14f490602401606060405180830381865afa158015610555573d5f803e3d5ffd5b505050506040513d601f19601f820116820180604052508101906105799190610c13565b90505f826040015160ff168360200151845f01516105979190610c98565b6105a19190610cb1565b90505f826040015160ff168360200151845f01516105bf9190610c98565b6105c99190610cb1565b90505f60035460026105db9190610cb1565b90505f808385106105f957505085546001600160a01b031633610609565b5050855433906001600160a01b03165b60015460405163a9059cbb60e01b81526001600160a01b038481166004830152602482018690529091169063a9059cbb906044016020604051808303815f875af1158015610659573d5f803e3d5ffd5b505050506040513d601f19601f8201168201806040525081019061067d9190610bf4565b50806001600160a01b0316826001600160a01b03168b7f6a2f70f9cd37cba9c79b58d9ae7fa9c626add25f1b9ac66c368f9efff49341d8866040516106c491815260200190565b60405180910390a450505050505050506106fd60017f9b779b17422d0df92223018b32b4d1fa46e071723d6817e2486d003becc55f0055565b5050565b610709610a98565b60015460405163a9059cbb60e01b8152336004820152602481018390526001600160a01b039091169063a9059cbb906044016020604051808303815f875af1158015610757573d5f803e3d5ffd5b505050506040513d601f19601f820116820180604052508101906106fd9190610bf4565b610783610a98565b61078c5f610ac4565b565b6002546040516331a9108f60e11b81526004810183905233916001600160a01b031690636352211e90602401602060405180830381865afa1580156107d5573d5f803e3d5ffd5b505050506040513d601f19601f820116820180604052508101906107f99190610bc2565b6001600160a01b0316146108435760405162461bcd60e51b81526020600482015260116024820152702737ba103cb7bab91031b430b6b834b7b760791b604482015260640161024f565b6003546001546040516370a0823160e01b81523360048201526001600160a01b03909116906370a0823190602401602060405180830381865afa15801561088c573d5f803e3d5ffd5b505050506040513d601f19601f820116820180604052508101906108b09190610bdd565b10156108f35760405162461bcd60e51b8152602060048201526012602482015271496e73756666696369656e74204152454e4160701b604482015260640161024f565b6001546003546040516323b872dd60e01b815233600482015230602482015260448101919091526001600160a01b03909116906323b872dd906064016020604051808303815f875af115801561094b573d5f803e3d5ffd5b505050506040513d601f19601f8201168201806040525081019061096f9190610bf4565b50600580545f918261098083610cc8565b909155506040805160608101825233808252602080830187815260018486018181525f88815260048552879020955186546001600160a01b0319166001600160a01b03909116178655915190850155516002909301805460ff1916931515939093179092559151858152929350909183917f4392aedf3bdc85e85ccf5c599cb7976a5b4f7b7189118379628127df3f40b104910160405180910390a35050565b610a28610a98565b6001600160a01b038116610a5157604051631e4fbdf760e01b81525f600482015260240161024f565b610a5a81610ac4565b50565b610a65610a98565b600355565b610a72610b13565b60027f9b779b17422d0df92223018b32b4d1fa46e071723d6817e2486d003becc55f0055565b5f546001600160a01b0316331461078c5760405163118cdaa760e01b815233600482015260240161024f565b5f80546001600160a01b038381166001600160a01b0319831681178455604051919092169283917f8be0079c531659141344cd1fd0a4f28419497f9722a3daafe3b4186f6b6457e09190a35050565b7f9b779b17422d0df92223018b32b4d1fa46e071723d6817e2486d003becc55f005460020361078c57604051633ee5aeb560e01b815260040160405180910390fd5b5f8060408385031215610b66575f80fd5b50508035926020909101359150565b5f60208284031215610b85575f80fd5b5035919050565b6001600160a01b0381168114610a5a575f80fd5b5f60208284031215610bb0575f80fd5b8135610bbb81610b8c565b9392505050565b5f60208284031215610bd2575f80fd5b8151610bbb81610b8c565b5f60208284031215610bed575f80fd5b5051919050565b5f60208284031215610c04575f80fd5b81518015158114610bbb575f80fd5b5f60608284031215610c23575f80fd5b6040516060810181811067ffffffffffffffff82111715610c5257634e487b7160e01b5f52604160045260245ffd5b80604052508251815260208301516020820152604083015160ff81168114610c78575f80fd5b60408201529392505050565b634e487b7160e01b5f52601160045260245ffd5b80820180821115610cab57610cab610c84565b92915050565b8082028115828204841417610cab57610cab610c84565b5f60018201610cd957610cd9610c84565b506001019056fea2646970667358221220494d943ffc57ae4abb3cd4e16ed1662d6be19446f23a4e73a9e6aba47e8b769964736f6c63430008190033",
  "linkReferences": {},
  "deployedLinkReferences": {}
}