{
  "_format": "hh-sol-artifact-1",
  "contractName": "ArenaCoin",
  "sourceName": "contracts/ArenaCoin.sol",
  "abi": [
    {
      "inputs": [],
      "stateMutability": "nonpayable",
      "type": "constructor"
    },
    {
      "inputs": [
        {
          "internalType": "address",
          "name": "spender",
          "type": "address"
        },
        {
          "internalType": "uint256",
          "name": "allowance",
          "type": "uint256"
        },
        {
          "internalType": "uint256",
          "name": "needed",
          "type": "uint256"
        }
      ],
      "name": "ERC20InsufficientAllowance",
      "type": "error"
    },
    {
      "inputs": [
        {
          "internalType": "address",
          "name": "sender",
          "type": "address"
        },
        {
          "internalType": "uint256",
          "name": "balance",
          "type": "uint256"
        },
        {
          "internalType": "uint256",
          "name": "needed",
          "type": "uint256"
        }
      ],
      "name": "ERC20InsufficientBalance",
      "type": "error"
    },
    {
      "inputs": [
        {
          "internalType": "address",
          "name": "approver",
          "type": "address"
        }
      ],
      "name": "ERC20InvalidApprover",
      "type": "error"
    },
    {
      "inputs": [
        {
          "internalType": "address",
          "name": "receiver",
          "type": "address"
        }
      ],
      "name": "ERC20InvalidReceiver",
      "type": "error"
    },
    {
      "inputs": [
        {
          "internalType": "address",
          "name": "sender",
          "type": "address"
        }
      ],
      "name": "ERC20InvalidSender",
      "type": "error"
    },
    {
      "inputs": [
        {
          "internalType": "address",
          "name": "spender",
          "type": "address"
        }
      ],
      "name": "ERC20InvalidSpender",
      "type": "error"
    },
    {
      "inputs": [],
      "name": "EnforcedPause",
      "type": "error"
    },
    {
      "inputs": [],
      "name": "ExpectedPause",
      "type": "error"
    },
    {
      "inputs": [
        {
          "internalType": "address",
          "name": "owner",
          "type": "address"
        }
      ],
      "name": "OwnableInvalidOwner",
      "type": "error"
    },
    {
      "inputs": [
        {
          "internalType": "address",
          "name": "account",
          "type": "address"
        }
      ],
      "name": "OwnableUnauthorizedAccount",
      "type": "error"
    },
    {
      "anonymous": false,
      "inputs": [
        {
          "indexed": true,
          "internalType": "address",
          "name": "owner",
          "type": "address"
        },
        {
          "indexed": true,
          "internalType": "address",
          "name": "spender",
          "type": "address"
        },
        {
          "indexed": false,
          "internalType": "uint256",
          "name": "value",
          "type": "uint256"
        }
      ],
      "name": "Approval",
      "type": "event"
    },
    {
      "anonymous": false,
      "inputs": [
        {
          "indexed": true,
          "internalType": "address",
          "name": "previousOwner",
          "type": "address"
        },
        {
          "indexed": true,
          "internalType": "address",
          "name": "newOwner",
          "type": "address"
        }
      ],
      "name": "OwnershipTransferred",
      "type": "event"
    },
    {
      "anonymous": false,
      "inputs": [
        {
          "indexed": false,
          "internalType": "address",
          "name": "account",
          "type": "address"
        }
      ],
      "name": "Paused",
      "type": "event"
    },
    {
      "anonymous": false,
      "inputs": [
        {
          "indexed": true,
          "internalType": "address",
          "name": "from",
          "type": "address"
        },
        {
          "indexed": true,
          "internalType": "address",
          "name": "to",
          "type": "address"
        },
        {
          "indexed": false,
          "internalType": "uint256",
          "name": "value",
          "type": "uint256"
        }
      ],
      "name": "Transfer",
      "type": "event"
    },
    {
      "anonymous": false,
      "inputs": [
        {
          "indexed": false,
          "internalType": "address",
          "name": "account",
          "type": "address"
        }
      ],
      "name": "Unpaused",
      "type": "event"
    },
    {
      "inputs": [
        {
          "internalType": "address",
          "name": "owner",
          "type": "address"
        },
        {
          "internalType": "address",
          "name": "spender",
          "type": "address"
        }
      ],
      "name": "allowance",
      "outputs": [
        {
          "internalType": "uint256",
          "name": "",
          "type": "uint256"
        }
      ],
      "stateMutability": "view",
      "type": "function"
    },
    {
      "inputs": [
        {
          "internalType": "address",
          "name": "spender",
          "type": "address"
        },
        {
          "internalType": "uint256",
          "name": "value",
          "type": "uint256"
        }
      ],
      "name": "approve",
      "outputs": [
        {
          "internalType": "bool",
          "name": "",
          "type": "bool"
        }
      ],
      "stateMutability": "nonpayable",
      "type": "function"
    },
    {
      "inputs": [
        {
          "internalType": "address",
          "name": "account",
          "type": "address"
        }
      ],
      "name": "balanceOf",
      "outputs": [
        {
          "internalType": "uint256",
          "name": "",
          "type": "uint256"
        }
      ],
      "stateMutability": "view",
      "type": "function"
    },
    {
      "inputs": [
        {
          "internalType": "uint256",
          "name": "value",
          "type": "uint256"
        }
      ],
      "name": "burn",
      "outputs": [],
      "stateMutability": "nonpayable",
      "type": "function"
    },
    {
      "inputs": [
        {
          "internalType": "address",
          "name": "account",
          "type": "address"
        },
        {
          "internalType": "uint256",
          "name": "value",
          "type": "uint256"
        }
      ],
      "name": "burnFrom",
      "outputs": [],
      "stateMutability": "nonpayable",
      "type": "function"
    },
    {
      "inputs": [],
      "name": "decimals",
      "outputs": [
        {
          "internalType": "uint8",
          "name": "",
          "type": "uint8"
        }
      ],
      "stateMutability": "view",
      "type": "function"
    },
    {
      "inputs": [],
      "name": "name",
      "outputs": [
        {
          "internalType": "string",
          "name": "",
          "type": "string"
        }
      ],
      "stateMutability": "view",
      "type": "function"
    },
    {
      "inputs": [],
      "name": "owner",
      "outputs": [
        {
          "internalType": "address",
          "name": "",
          "type": "address"
        }
      ],
      "stateMutability": "view",
      "type": "function"
    },
    {
      "inputs": [],
      "name": "pause",
      "outputs": [],
      "stateMutability": "nonpayable",
      "type": "function"
    },
    {
      "inputs": [],
      "name": "paused",
      "outputs": [
        {
          "internalType": "bool",
          "name": "",
          "type": "bool"
        }
      ],
      "stateMutability": "view",
      "type": "function"
    },
    {
      "inputs": [],
      "name": "renounceOwnership",
      "outputs": [],
      "stateMutability": "nonpayable",
      "type": "function"
    },
    {
      "inputs": [],
      "name": "symbol",
      "outputs": [
        {
          "internalType": "string",
          "name": "",
          "type": "string"
        }
      ],
      "stateMutability": "view",
      "type": "function"
    },
    {
      "inputs": [],
      "name": "totalSupply",
      "outputs": [
        {
          "internalType": "uint256",
          "name": "",
          "type": "uint256"
        }
      ],
      "stateMutability": "view",
      "type": "function"
    },
    {
      "inputs": [
        {
          "internalType": "address",
          "name": "to",
          "type": "address"
        },
        {
          "internalType": "uint256",
          "name": "value",
          "type": "uint256"
        }
      ],
      "name": "transfer",
      "outputs": [
        {
          "internalType": "bool",
          "name": "",
          "type": "bool"
        }
      ],
      "stateMutability": "nonpayable",
      "type": "function"
    },
    {
      "inputs": [
        {
          "internalType": "address",
          "name": "from",
          "type": "address"
        },
        {
          "internalType": "address",
          "name": "to",
          "type": "address"
        },
        {
          "internalType": "uint256",
          "name": "value",
          "type": "uint256"
        }
      ],
      "name": "transferFrom",
      "outputs": [
        {
          "internalType": "bool",
          "name": "",
          "type": "bool"
        }
      ],
      "stateMutability": "nonpayable",
      "type": "function"
    },
    {
      "inputs": [
        {
          "internalType": "address",
          "name": "newOwner",
          "type": "address"
        }
      ],
      "name": "transferOwnership",
      "outputs": [],
      "stateMutability": "nonpayable",
      "type": "function"
    },
    {
      "inputs": [],
      "name": "unpause",
      "outputs": [],
      "stateMutability": "nonpayable",
      "type": "function"
    }
  ],
  "bytecode": "0x608060405234801561000f575f80fd5b50336040518060400160405280600981526020016820b932b730a1b7b4b760b91b815250604051806040016040528060058152602001644152454e4160d81b81525081600390816100609190610366565b50600461006d8282610366565b5050506001600160a01b03811661009e57604051631e4fbdf760e01b81525f60048201526024015b60405180910390fd5b6100a7816100cf565b506100ca336100b86012600a61051b565b6100c590620f4240610530565b610128565b61055a565b600580546001600160a01b03838116610100818102610100600160a81b031985161790945560405193909204169182907f8be0079c531659141344cd1fd0a4f28419497f9722a3daafe3b4186f6b6457e0905f90a35050565b6001600160a01b0382166101515760405163ec442f0560e01b81525f6004820152602401610095565b61015c5f8383610160565b5050565b61016b838383610170565b505050565b610178610183565b61016b8383836101a9565b60055460ff16156101a75760405163d93c066560e01b815260040160405180910390fd5b565b6001600160a01b0383166101d3578060025f8282546101c89190610547565b909155506102439050565b6001600160a01b0383165f90815260208190526040902054818110156102255760405163391434e360e21b81526001600160a01b03851660048201526024810182905260448101839052606401610095565b6001600160a01b0384165f9081526020819052604090209082900390555b6001600160a01b03821661025f5760028054829003905561027d565b6001600160a01b0382165f9081526020819052604090208054820190555b816001600160a01b0316836001600160a01b03167fddf252ad1be2c89b69c2b068fc378daa952ba7f163c4a11628f55a4df523b3ef836040516102c291815260200190565b60405180910390a3505050565b634e487b7160e01b5f52604160045260245ffd5b600181811c908216806102f757607f821691505b60208210810361031557634e487b7160e01b5f52602260045260245ffd5b50919050565b601f82111561016b57805f5260205f20601f840160051c810160208510156103405750805b601f840160051c820191505b8181101561035f575f815560010161034c565b5050505050565b81516001600160401b0381111561037f5761037f6102cf565b6103938161038d84546102e3565b8461031b565b602080601f8311600181146103c6575f84156103af5750858301515b5f19600386901b1c1916600185901b17855561041d565b5f85815260208120601f198616915b828110156103f4578886015182559484019460019091019084016103d5565b508582101561041157878501515f19600388901b60f8161c191681555b505060018460011b0185555b505050505050565b634e487b7160e01b5f52601160045260245ffd5b600181815b8085111561047357815f190482111561045957610459610425565b8085161561046657918102915b93841c939080029061043e565b509250929050565b5f8261048957506001610515565b8161049557505f610515565b81600181146104ab57600281146104b5576104d1565b6001915050610515565b60ff8411156104c6576104c6610425565b50506001821b610515565b5060208310610133831016604e8410600b84101617156104f4575081810a610515565b6104fe8383610439565b805f190482111561051157610511610425565b0290505b92915050565b5f61052960ff84168361047b565b9392505050565b808202811582820484141761051557610515610425565b8082018082111561051557610515610425565b610a39806105675f395ff3fe608060405234801561000f575f80fd5b5060043610610106575f3560e01c806370a082311161009e5780638da5cb5b1161006e5780638da5cb5b146101f257806395d89b411461021b578063a9059cbb14610223578063dd62ed3e14610236578063f2fde38b1461026e575f80fd5b806370a08231146101a7578063715018a6146101cf57806379cc6790146101d75780638456cb59146101ea575f80fd5b8063313ce567116100d9578063313ce567146101705780633f4ba83a1461017f57806342966c68146101895780635c975abb1461019c575f80fd5b806306fdde031461010a578063095ea7b31461012857806318160ddd1461014b57806323b872dd1461015d575b5f80fd5b610112610281565b60405161011f9190610893565b60405180910390f35b61013b6101363660046108e3565b610311565b604051901515815260200161011f565b6002545b60405190815260200161011f565b61013b61016b36600461090b565b61032a565b6040516012815260200161011f565b61018761034d565b005b610187610197366004610944565b61035f565b60055460ff1661013b565b61014f6101b536600461095b565b6001600160a01b03165f9081526020819052604090205490565b61018761036c565b6101876101e53660046108e3565b61037d565b610187610396565b60055461010090046001600160a01b03166040516001600160a01b03909116815260200161011f565b6101126103a6565b61013b6102313660046108e3565b6103b5565b61014f61024436600461097b565b6001600160a01b039182165f90815260016020908152604080832093909416825291909152205490565b61018761027c36600461095b565b6103c2565b606060038054610290906109ac565b80601f01602080910402602001604051908101604052809291908181526020018280546102bc906109ac565b80156103075780601f106102de57610100808354040283529160200191610307565b820191905f5260205f20905b8154815290600101906020018083116102ea57829003601f168201915b5050505050905090565b5f3361031e818585610401565b60019150505b92915050565b5f33610337858285610413565b61034285858561048f565b506001949350505050565b6103556104ec565b61035d61051f565b565b6103693382610571565b50565b6103746104ec565b61035d5f6105a5565b610388823383610413565b6103928282610571565b5050565b61039e6104ec565b61035d6105fe565b606060048054610290906109ac565b5f3361031e81858561048f565b6103ca6104ec565b6001600160a01b0381166103f857604051631e4fbdf760e01b81525f60048201526024015b60405180910390fd5b610369816105a5565b61040e838383600161063b565b505050565b6001600160a01b038381165f908152600160209081526040808320938616835292905220545f19811015610489578181101561047b57604051637dc7a0d960e11b81526001600160a01b038416600482015260248101829052604481018390526064016103ef565b61048984848484035f61063b565b50505050565b6001600160a01b0383166104b857604051634b637e8f60e11b81525f60048201526024016103ef565b6001600160a01b0382166104e15760405163ec442f0560e01b81525f60048201526024016103ef565b61040e83838361070d565b6005546001600160a01b0361010090910416331461035d5760405163118cdaa760e01b81523360048201526024016103ef565b610527610718565b6005805460ff191690557f5db9ee0a495bf2e6ff9c91a7834c1ba4fdd244a5e8aa4e537bd38aeae4b073aa335b6040516001600160a01b03909116815260200160405180910390a1565b6001600160a01b03821661059a57604051634b637e8f60e11b81525f60048201526024016103ef565b610392825f8361070d565b600580546001600160a01b03838116610100818102610100600160a81b031985161790945560405193909204169182907f8be0079c531659141344cd1fd0a4f28419497f9722a3daafe3b4186f6b6457e0905f90a35050565b61060661073b565b6005805460ff191660011790557f62e78cea01bee320cd4e420270b5ea74000d11b0c9f74754ebdbfc544b05a2586105543390565b6001600160a01b0384166106645760405163e602df0560e01b81525f60048201526024016103ef565b6001600160a01b03831661068d57604051634a1406b160e11b81525f60048201526024016103ef565b6001600160a01b038085165f908152600160209081526040808320938716835292905220829055801561048957826001600160a01b0316846001600160a01b03167f8c5be1e5ebec7d5bd14f71427d1e84f3dd0314c0f7b2291e5b200ac8c7c3b925846040516106ff91815260200190565b60405180910390a350505050565b61040e83838361075f565b60055460ff1661035d57604051638dfc202b60e01b815260040160405180910390fd5b60055460ff161561035d5760405163d93c066560e01b815260040160405180910390fd5b61076761073b565b61040e8383836001600160a01b038316610797578060025f82825461078c91906109e4565b909155506108079050565b6001600160a01b0383165f90815260208190526040902054818110156107e95760405163391434e360e21b81526001600160a01b038516600482015260248101829052604481018390526064016103ef565b6001600160a01b0384165f9081526020819052604090209082900390555b6001600160a01b03821661082357600280548290039055610841565b6001600160a01b0382165f9081526020819052604090208054820190555b816001600160a01b0316836001600160a01b03167fddf252ad1be2c89b69c2b068fc378daa952ba7f163c4a11628f55a4df523b3ef8360405161088691815260200190565b60405180910390a3505050565b602081525f82518060208401528060208501604085015e5f604082850101526040601f19601f83011684010191505092915050565b80356001600160a01b03811681146108de575f80fd5b919050565b5f80604083850312156108f4575f80fd5b6108fd836108c8565b946020939093013593505050565b5f805f6060848603121561091d575f80fd5b610926846108c8565b9250610934602085016108c8565b9150604084013590509250925092565b5f60208284031215610954575f80fd5b5035919050565b5f6020828403121561096b575f80fd5b610974826108c8565b9392505050565b5f806040838503121561098c575f80fd5b610995836108c8565b91506109a3602084016108c8565b90509250929050565b600181811c908216806109c057607f821691505b6020821081036109de57634e487b7160e01b5f52602260045260245ffd5b50919050565b8082018082111561032457634e487b7160e01b5f52601160045260245ffdfea264697066735822122092ee18f74ca010d100f659be327adff5d77fc040b35fe58c71d9fd4f5506a1ba64736f6c63430008190033",
  "linkReferences": {},
  "deployedLinkReferences": {}
}