{
  "_format": "hh-sol-artifact-1",
  "contractName": "ArenaMarketplace",
  "sourceName": "contracts/ArenaMarketplace.sol",
  "abi": [
    {
      "inputs": [
        {
          "internalType": "contract ArenaCoin",
          "name": "_arenaCoin",
          "type": "address"
        },
        {
          "internalType": "contract ArenaChampion",
          "name": "_arenaChampion",
          "type": "address"
        }
      ],
      "stateMutability": "nonpayable",
      "type": "constructor"
    },
    {
      "inputs": [],
      "name": "ReentrancyGuardReentrantCall",
      "type": "error"
    },
    {
      "anonymous": false,
      "inputs": [
        {
          "indexed": false,
          "internalType": "address",
          "name": "seller",
          "type": "address"
        },
        {
          "indexed": false,
          "internalType": "uint256",
          "name": "tokenId",
          "type": "uint256"
        },
        {
          "indexed": false,
          "internalType": "uint256",
          "name": "price",
          "type": "uint256"
        }
      ],
      "name": "Listed",
      "type": "event"
    },
    {
      "anonymous": false,
      "inputs": [
        {
          "indexed": false,
          "internalType": "address",
          "name": "buyer",
          "type": "address"
        },
        {
          "indexed": false,
          "internalType": "uint256",
          "name": "tokenId",
          "type": "uint256"
        },
        {
          "indexed": false,
          "internalType": "uint256",
          "name": "price",
          "type": "uint256"
        }
      ],
      "name": "Sold",
      "type": "event"
    },
    {
      "inputs": [],
      "name": "arenaChampion",
      "outputs": [
        {
          "internalType": "contract ArenaChampion",
          "name": "",
          "type": "address"
        }
      ],
      "stateMutability": "view",
      "type": "function"
    },
    {
      "inputs": [],
      "name": "arenaCoin",
      "outputs": [
        {
          "internalType": "contract ArenaCoin",
          "name": "",
          "type": "address"
        }
      ],
      "stateMutability": "view",
      "type": "function"
    },
    {
      "inputs": [
        {
          "internalType": "uint256",
          "name": "tokenId",
          "type": "uint256"
        }
      ],
      "name": "buyNFT",
      "outputs": [],
      "stateMutability": "nonpayable",
      "type": "function"
    },
    {
      "inputs": [
        {
          "internalType": "uint256",
          "name": "tokenId",
          "type": "uint256"
        },
        {
          "internalType": "uint256",
          "name": "price",
          "type": "uint256"
        }
      ],
      "name": "listNFT",
      "outputs": [],
      "stateMutability": "nonpayable",
      "type": "function"
    },
    {
      "inputs": [],
      "name": "listingFee",
      "outputs": [
        {
          "internalType": "uint256",
          "name": "",
          "type": "uint256"
        }
      ],
      "stateMutability": "view",
      "type": "function"
    },
    {
      "inputs": [
        {
          "internalType": "uint256",
          "name": "",
          "type": "uint256"
        }
      ],
      "name": "listings",
      "outputs": [
        {
          "internalType": "address",
          "name": "seller",
          "type": "address"
        },
        {
          "internalType": "uint256",
          "name": "tokenId",
          "type": "uint256"
        },
        {
          "internalType": "uint256",
          "name": "price",
          "type": "uint256"
        },
        {
          "internalType": "bool",
          "name": "active",
          "type": "bool"
        }
      ],
      "stateMutability": "view",
      "type": "function"
    },
    {
      "inputs": [
        {
          "internalType": "uint256",
          "name": "fee",
          "type": "uint256"
        }
      ],
      "name": "setListingFee",
      "outputs": [],
      "stateMutability": "nonpayable",
      "type": "function"
    }
  ],
  "bytecode": "0x6080604052670de0b6b3a7640000600255348015601a575f80fd5b506040516106f33803806106f383398101604081905260379160a0565b60017f9b779b17422d0df92223018b32b4d1fa46e071723d6817e2486d003becc55f00555f80546001600160a01b039384166001600160a01b0319918216179091556001805492909316911617905560d3565b6001600160a01b0381168114609d575f80fd5b50565b5f806040838503121560b0575f80fd5b825160b981608a565b602084015190925060c881608a565b809150509250929050565b610613806100e05f395ff3fe608060405234801561000f575f80fd5b506004361061007a575f3560e01c80635b5f681d116100585780635b5f681d146100d55780636a1b7ecc146100e857806394383f14146100ff578063de74e57b14610112575f80fd5b8063131dbd091461007e57806348f7d5ab1461009357806351ed8288146100c2575b5f80fd5b61009161008c36600461055a565b600255565b005b5f546100a5906001600160a01b031681565b6040516001600160a01b0390911681526020015b60405180910390f35b6100916100d036600461055a565b610181565b6001546100a5906001600160a01b031681565b6100f160025481565b6040519081526020016100b9565b61009161010d366004610571565b610388565b61015561012036600461055a565b600360208190525f918252604090912080546001820154600283015492909301546001600160a01b0390911692919060ff1684565b604080516001600160a01b039095168552602085019390935291830152151560608201526080016100b9565b6101896104e8565b5f81815260036020818152604092839020835160808101855281546001600160a01b0316815260018201549281019290925260028101549382019390935291015460ff161515606082018190526102165760405162461bcd60e51b815260206004820152600c60248201526b4e6f7420666f722073616c6560a01b60448201526064015b60405180910390fd5b5f54815160408084015190516323b872dd60e01b81523360048201526001600160a01b03928316602482015260448101919091529116906323b872dd906064016020604051808303815f875af1158015610272573d5f803e3d5ffd5b505050506040513d601f19601f820116820180604052508101906102969190610591565b5060015481516040516323b872dd60e01b81526001600160a01b039182166004820152336024820152604481018590529116906323b872dd906064015f604051808303815f87803b1580156102e9575f80fd5b505af11580156102fb573d5f803e3d5ffd5b5050505f83815260036020818152604092839020909101805460ff191690558382015182513381529182018690528183015290517fbac9694ac0daa55169abd117086fe32c89401d9a3b15dd1d34e55e0aa4e47a9d92509081900360600190a15061038560017f9b779b17422d0df92223018b32b4d1fa46e071723d6817e2486d003becc55f0055565b50565b6001546040516331a9108f60e11b81526004810184905233916001600160a01b031690636352211e90602401602060405180830381865afa1580156103cf573d5f803e3d5ffd5b505050506040513d601f19601f820116820180604052508101906103f391906105b7565b6001600160a01b0316146104355760405162461bcd60e51b81526020600482015260096024820152682737ba1037bbb732b960b91b604482015260640161020d565b60408051608081018252338082526020808301868152838501868152600160608087018281525f8b81526003808852908a9020985189546001600160a01b0319166001600160a01b03909116178955945192880192909255915160028701555194909101805460ff191694151594909417909355835191825281018590529182018390527f6e16e8064e3c8254cef11e01e152416398602d7e8785f743f1c2f93a9a15ff35910160405180910390a15050565b6104f0610516565b60027f9b779b17422d0df92223018b32b4d1fa46e071723d6817e2486d003becc55f0055565b7f9b779b17422d0df92223018b32b4d1fa46e071723d6817e2486d003becc55f005460020361055857604051633ee5aeb560e01b815260040160405180910390fd5b565b5f6020828403121561056a575f80fd5b5035919050565b5f8060408385031215610582575f80fd5b50508035926020909101359150565b5f602082840312156105a1575f80fd5b815180151581146105b0575f80fd5b9392505050565b5f602082840312156105c7575f80fd5b81516001600160a01b03811681146105b0575f80fdfea2646970667358221220806814c15effe1f1daecf7c43a93ff319fd7b49bf2c904ddf77df50a750eca8664736f6c63430008190033",
  "linkReferences": {},
  "deployedLinkReferences": {}
}