{
  "_format": "hh-sol-artifact-1",
  "contractName": "ArenaBattle",
  "sourceName": "contracts/ArenaBattle.sol",
  "abi": [
    {
      "inputs": [
        {
          "internalType": "contract ArenaCoin",
          "name": "_arenaCoin",
          "type": "address"
        },
        {
          "internalType": "contract ArenaChampion",
          "name": "_arenaChampion",
          "type": "address"
        }
      ],
      "stateMutability": "nonpayable",
      "type": "constructor"
    },
    {
      "inputs": [
        {
          "internalType": "address",
          "name": "owner",
          "type": "address"
        }
      ],
      "name": "OwnableInvalidOwner",
      "type": "error"
    },
    {
      "inputs": [
        {
          "internalType": "address",
          "name": "account",
          "type": "address"
        }
      ],
      "name": "OwnableUnauthorizedAccount",
      "type": "error"
    },
    {
      "anonymous": false,
      "inputs": [
        {
          "indexed": true,
          "internalType": "address",
          "name": "player",
          "type": "address"
        },
        {
          "indexed": false,
          "internalType": "uint256",
          "name": "reward",
          "type": "uint256"
        },
        {
          "indexed": false,
          "internalType": "uint256",
          "name": "nftId",
          "type": "uint256"
        },
        {
          "indexed": false,
          "internalType": "uint256",
          "name": "attack",
          "type": "uint256"
        },
        {
          "indexed": false,
          "internalType": "uint256",
          "name": "defense",
          "type": "uint256"
        },
        {
          "indexed": false,
          "internalType": "uint8",
          "name": "rarity",
          "type": "uint8"
        }
      ],
      "name": "BattleResult",
      "type": "event"
    },
    {
      "anonymous": false,
      "inputs": [
        {
          "indexed": true,
          "internalType": "address",
          "name": "previousOwner",
          "type": "address"
        },
        {
          "indexed": true,
          "internalType": "address",
          "name": "newOwner",
          "type": "address"
        }
      ],
      "name": "OwnershipTransferred",
      "type": "event"
    },
    {
      "inputs": [],
      "name": "arenaChampion",
      "outputs": [
        {
          "internalType": "contract ArenaChampion",
          "name": "",
          "type": "address"
        }
      ],
      "stateMutability": "view",
      "type": "function"
    },
    {
      "inputs": [],
      "name": "arenaCoin",
      "outputs": [
        {
          "internalType": "contract ArenaCoin",
          "name": "",
          "type": "address"
        }
      ],
      "stateMutability": "view",
      "type": "function"
    },
    {
      "inputs": [],
      "name": "enterBattle",
      "outputs": [],
      "stateMutability": "nonpayable",
      "type": "function"
    },
    {
      "inputs": [],
      "name": "entryFee",
      "outputs": [
        {
          "internalType": "uint256",
          "name": "",
          "type": "uint256"
        }
      ],
      "stateMutability": "view",
      "type": "function"
    },
    {
      "inputs": [],
      "name": "owner",
      "outputs": [
        {
          "internalType": "address",
          "name": "",
          "type": "address"
        }
      ],
      "stateMutability": "view",
      "type": "function"
    },
    {
      "inputs": [],
      "name": "renounceOwnership",
      "outputs": [],
      "stateMutability": "nonpayable",
      "type": "function"
    },
    {
      "inputs": [
        {
          "internalType": "uint256",
          "name": "fee",
          "type": "uint256"
        }
      ],
      "name": "setEntryFee",
      "outputs": [],
      "stateMutability": "nonpayable",
      "type": "function"
    },
    {
      "inputs": [
        {
          "internalType": "address",
          "name": "newOwner",
          "type": "address"
        }
      ],
      "name": "transferOwnership",
      "outputs": [],
      "stateMutability": "nonpayable",
      "type": "function"
    },
    {
      "inputs": [
        {
          "internalType": "uint256",
          "name": "amount",
          "type": "uint256"
        }
      ],
      "name": "withdrawArena",
      "outputs": [],
      "stateMutability": "nonpayable",
      "type": "function"
    }
  ],
  "bytecode": "0x6080604052678ac7230489e8000060035534801561001b575f80fd5b5060405161086438038061086483398101604081905261003a91610100565b338061005f57604051631e4fbdf760e01b81525f600482015260240160405180910390fd5b6100688161009a565b50600180546001600160a01b039384166001600160a01b03199182161790915560028054929093169116179055610138565b5f80546001600160a01b038381166001600160a01b0319831681178455604051919092169283917f8be0079c531659141344cd1fd0a4f28419497f9722a3daafe3b4186f6b6457e09190a35050565b6001600160a01b03811681146100fd575f80fd5b50565b5f8060408385031215610111575f80fd5b825161011c816100e9565b602084015190925061012d816100e9565b809150509250929050565b61071f806101455f395ff3fe608060405234801561000f575f80fd5b5060043610610090575f3560e01c806382ca61711161006357806382ca6171146100f85780638da5cb5b14610100578063ea4e218814610110578063eb770d0c14610123578063f2fde38b14610136575f80fd5b8063072ea61c1461009457806348f7d5ab146100b05780635b5f681d146100db578063715018a6146100ee575b5f80fd5b61009d60035481565b6040519081526020015b60405180910390f35b6001546100c3906001600160a01b031681565b6040516001600160a01b0390911681526020016100a7565b6002546100c3906001600160a01b031681565b6100f6610149565b005b6100f661015c565b5f546001600160a01b03166100c3565b6100f661011e3660046105ba565b610477565b6100f66101313660046105ba565b6104f5565b6100f66101443660046105d1565b610502565b61015161053f565b61015a5f61056b565b565b6003546001546040516370a0823160e01b81523360048201526001600160a01b03909116906370a0823190602401602060405180830381865afa1580156101a5573d5f803e3d5ffd5b505050506040513d601f19601f820116820180604052508101906101c991906105fe565b101561020f5760405162461bcd60e51b815260206004820152601060248201526f4e6f7420656e6f756768204152454e4160801b60448201526064015b60405180910390fd5b6001546003546040516323b872dd60e01b815233600482015230602482015260448101919091526001600160a01b03909116906323b872dd906064016020604051808303815f875af1158015610267573d5f803e3d5ffd5b505050506040513d601f19601f8201168201806040525081019061028b9190610615565b506002546040516335313c2160e11b81523360048201525f916001600160a01b031690636a627842906024016020604051808303815f875af11580156102d3573d5f803e3d5ffd5b505050506040513d601f19601f820116820180604052508101906102f791906105fe565b600254604051632fb3053d60e21b8152600481018390529192505f916001600160a01b039091169063becc14f490602401606060405180830381865afa158015610343573d5f803e3d5ffd5b505050506040513d601f19601f820116820180604052508101906103679190610634565b90505f816040015160ff168260200151835f015161038591906106b9565b61038f91906106d2565b6103a090662386f26fc100006106d2565b60015460405163a9059cbb60e01b8152336004820152602481018390529192506001600160a01b03169063a9059cbb906044016020604051808303815f875af11580156103ef573d5f803e3d5ffd5b505050506040513d601f19601f820116820180604052508101906104139190610615565b508151602080840151604080860151815186815293840188905290830193909352606082015260ff909116608082015233907ffdc4117e3ba4fcd421f96834d9ac10a2b00e55bb02b797fc911e9ae661bfa3b59060a00160405180910390a2505050565b61047f61053f565b60015460405163a9059cbb60e01b8152336004820152602481018390526001600160a01b039091169063a9059cbb906044016020604051808303815f875af11580156104cd573d5f803e3d5ffd5b505050506040513d601f19601f820116820180604052508101906104f19190610615565b5050565b6104fd61053f565b600355565b61050a61053f565b6001600160a01b03811661053357604051631e4fbdf760e01b81525f6004820152602401610206565b61053c8161056b565b50565b5f546001600160a01b0316331461015a5760405163118cdaa760e01b8152336004820152602401610206565b5f80546001600160a01b038381166001600160a01b0319831681178455604051919092169283917f8be0079c531659141344cd1fd0a4f28419497f9722a3daafe3b4186f6b6457e09190a35050565b5f602082840312156105ca575f80fd5b5035919050565b5f602082840312156105e1575f80fd5b81356001600160a01b03811681146105f7575f80fd5b9392505050565b5f6020828403121561060e575f80fd5b5051919050565b5f60208284031215610625575f80fd5b815180151581146105f7575f80fd5b5f60608284031215610644575f80fd5b6040516060810181811067ffffffffffffffff8211171561067357634e487b7160e01b5f52604160045260245ffd5b80604052508251815260208301516020820152604083015160ff81168114610699575f80fd5b60408201529392505050565b634e487b7160e01b5f52601160045260245ffd5b808201808211156106cc576106cc6106a5565b92915050565b80820281158282048414176106cc576106cc6106a556fea264697066735822122057ee0ae14d52ccf93bf63554e4b2a5f4fd3b239e1ddd2419fa3d7e97211c5aac64736f6c63430008190033",
  "linkReferences": {},
  "deployedLinkReferences": {}
}