{
  "_format": "hh-sol-artifact-1",
  "contractName": "ArenaChampion",
  "sourceName": "contracts/ArenaChampion.sol",
  "abi": [
    {
      "inputs": [],
      "stateMutability": "nonpayable",
      "type": "constructor"
    },
    {
      "inputs": [],
      "name": "ERC721EnumerableForbiddenBatchMint",
      "type": "error"
    },
    {
      "inputs": [
        {
          "internalType": "address",
          "name": "sender",
          "type": "address"
        },
        {
          "internalType": "uint256",
          "name": "tokenId",
          "type": "uint256"
        },
        {
          "internalType": "address",
          "name": "owner",
          "type": "address"
        }
      ],
      "name": "ERC721IncorrectOwner",
      "type": "error"
    },
    {
      "inputs": [
        {
          "internalType": "address",
          "name": "operator",
          "type": "address"
        },
        {
          "internalType": "uint256",
          "name": "tokenId",
          "type": "uint256"
        }
      ],
      "name": "ERC721InsufficientApproval",
      "type": "error"
    },
    {
      "inputs": [
        {
          "internalType": "address",
          "name": "approver",
          "type": "address"
        }
      ],
      "name": "ERC721InvalidApprover",
      "type": "error"
    },
    {
      "inputs": [
        {
          "internalType": "address",
          "name": "operator",
          "type": "address"
        }
      ],
      "name": "ERC721InvalidOperator",
      "type": "error"
    },
    {
      "inputs": [
        {
          "internalType": "address",
          "name": "owner",
          "type": "address"
        }
      ],
      "name": "ERC721InvalidOwner",
      "type": "error"
    },
    {
      "inputs": [
        {
          "internalType": "address",
          "name": "receiver",
          "type": "address"
        }
      ],
      "name": "ERC721InvalidReceiver",
      "type": "error"
    },
    {
      "inputs": [
        {
          "internalType": "address",
          "name": "sender",
          "type": "address"
        }
      ],
      "name": "ERC721InvalidSender",
      "type": "error"
    },
    {
      "inputs": [
        {
          "internalType": "uint256",
          "name": "tokenId",
          "type": "uint256"
        }
      ],
      "name": "ERC721NonexistentToken",
      "type": "error"
    },
    {
      "inputs": [
        {
          "internalType": "address",
          "name": "owner",
          "type": "address"
        },
        {
          "internalType": "uint256",
          "name": "index",
          "type": "uint256"
        }
      ],
      "name": "ERC721OutOfBoundsIndex",
      "type": "error"
    },
    {
      "inputs": [
        {
          "internalType": "address",
          "name": "owner",
          "type": "address"
        }
      ],
      "name": "OwnableInvalidOwner",
      "type": "error"
    },
    {
      "inputs": [
        {
          "internalType": "address",
          "name": "account",
          "type": "address"
        }
      ],
      "name": "OwnableUnauthorizedAccount",
      "type": "error"
    },
    {
      "anonymous": false,
      "inputs": [
        {
          "indexed": true,
          "internalType": "address",
          "name": "owner",
          "type": "address"
        },
        {
          "indexed": true,
          "internalType": "address",
          "name": "approved",
          "type": "address"
        },
        {
          "indexed": true,
          "internalType": "uint256",
          "name": "tokenId",
          "type": "uint256"
        }
      ],
      "name": "Approval",
      "type": "event"
    },
    {
      "anonymous": false,
      "inputs": [
        {
          "indexed": true,
          "internalType": "address",
          "name": "owner",
          "type": "address"
        },
        {
          "indexed": true,
          "internalType": "address",
          "name": "operator",
          "type": "address"
        },
        {
          "indexed": false,
          "internalType": "bool",
          "name": "approved",
          "type": "bool"
        }
      ],
      "name": "ApprovalForAll",
      "type": "event"
    },
    {
      "anonymous": false,
      "inputs": [
        {
          "indexed": true,
          "internalType": "address",
          "name": "previousOwner",
          "type": "address"
        },
        {
          "indexed": true,
          "internalType": "address",
          "name": "newOwner",
          "type": "address"
        }
      ],
      "name": "OwnershipTransferred",
      "type": "event"
    },
    {
      "anonymous": false,
      "inputs": [
        {
          "indexed": true,
          "internalType": "address",
          "name": "from",
          "type": "address"
        },
        {
          "indexed": true,
          "internalType": "address",
          "name": "to",
          "type": "address"
        },
        {
          "indexed": true,
          "internalType": "uint256",
          "name": "tokenId",
          "type": "uint256"
        }
      ],
      "name": "Transfer",
      "type": "event"
    },
    {
      "inputs": [
        {
          "internalType": "address",
          "name": "to",
          "type": "address"
        },
        {
          "internalType": "uint256",
          "name": "tokenId",
          "type": "uint256"
        }
      ],
      "name": "approve",
      "outputs": [],
      "stateMutability": "nonpayable",
      "type": "function"
    },
    {
      "inputs": [
        {
          "internalType": "address",
          "name": "owner",
          "type": "address"
        }
      ],
      "name": "balanceOf",
      "outputs": [
        {
          "internalType": "uint256",
          "name": "",
          "type": "uint256"
        }
      ],
      "stateMutability": "view",
      "type": "function"
    },
    {
      "inputs": [
        {
          "internalType": "uint256",
          "name": "",
          "type": "uint256"
        }
      ],
      "name": "champions",
      "outputs": [
        {
          "internalType": "uint256",
          "name": "attack",
          "type": "uint256"
        },
        {
          "internalType": "uint256",
          "name": "defense",
          "type": "uint256"
        },
        {
          "internalType": "uint8",
          "name": "rarity",
          "type": "uint8"
        }
      ],
      "stateMutability": "view",
      "type": "function"
    },
    {
      "inputs": [
        {
          "internalType": "uint256",
          "name": "tokenId",
          "type": "uint256"
        }
      ],
      "name": "getApproved",
      "outputs": [
        {
          "internalType": "address",
          "name": "",
          "type": "address"
        }
      ],
      "stateMutability": "view",
      "type": "function"
    },
    {
      "inputs": [
        {
          "internalType": "uint256",
          "name": "tokenId",
          "type": "uint256"
        }
      ],
      "name": "getChampion",
      "outputs": [
        {
          "components": [
            {
              "internalType": "uint256",
              "name": "attack",
              "type": "uint256"
            },
            {
              "internalType": "uint256",
              "name": "defense",
              "type": "uint256"
            },
            {
              "internalType": "uint8",
              "name": "rarity",
              "type": "uint8"
            }
          ],
          "internalType": "struct ArenaChampion.Champion",
          "name": "",
          "type": "tuple"
        }
      ],
      "stateMutability": "view",
      "type": "function"
    },
    {
      "inputs": [
        {
          "internalType": "address",
          "name": "owner",
          "type": "address"
        },
        {
          "internalType": "address",
          "name": "operator",
          "type": "address"
        }
      ],
      "name": "isApprovedForAll",
      "outputs": [
        {
          "internalType": "bool",
          "name": "",
          "type": "bool"
        }
      ],
      "stateMutability": "view",
      "type": "function"
    },
    {
      "inputs": [
        {
          "internalType": "address",
          "name": "to",
          "type": "address"
        }
      ],
      "name": "mint",
      "outputs": [
        {
          "internalType": "uint256",
          "name": "",
          "type": "uint256"
        }
      ],
      "stateMutability": "nonpayable",
      "type": "function"
    },
    {
      "inputs": [],
      "name": "name",
      "outputs": [
        {
          "internalType": "string",
          "name": "",
          "type": "string"
        }
      ],
      "stateMutability": "view",
      "type": "function"
    },
    {
      "inputs": [],
      "name": "nextId",
      "outputs": [
        {
          "internalType": "uint256",
          "name": "",
          "type": "uint256"
        }
      ],
      "stateMutability": "view",
      "type": "function"
    },
    {
      "inputs": [],
      "name": "owner",
      "outputs": [
        {
          "internalType": "address",
          "name": "",
          "type": "address"
        }
      ],
      "stateMutability": "view",
      "type": "function"
    },
    {
      "inputs": [
        {
          "internalType": "uint256",
          "name": "tokenId",
          "type": "uint256"
        }
      ],
      "name": "ownerOf",
      "outputs": [
        {
          "internalType": "address",
          "name": "",
          "type": "address"
        }
      ],
      "stateMutability": "view",
      "type": "function"
    },
    {
      "inputs": [],
      "name": "renounceOwnership",
      "outputs": [],
      "stateMutability": "nonpayable",
      "type": "function"
    },
    {
      "inputs": [
        {
          "internalType": "address",
          "name": "from",
          "type": "address"
        },
        {
          "internalType": "address",
          "name": "to",
          "type": "address"
        },
        {
          "internalType": "uint256",
          "name": "tokenId",
          "type": "uint256"
        }
      ],
      "name": "safeTransferFrom",
      "outputs": [],
      "stateMutability": "nonpayable",
      "type": "function"
    },
    {
      "inputs": [
        {
          "internalType": "address",
          "name": "from",
          "type": "address"
        },
        {
          "internalType": "address",
          "name": "to",
          "type": "address"
        },
        {
          "internalType": "uint256",
          "name": "tokenId",
          "type": "uint256"
        },
        {
          "internalType": "bytes",
          "name": "data",
          "type": "bytes"
        }
      ],
      "name": "safeTransferFrom",
      "outputs": [],
      "stateMutability": "nonpayable",
      "type": "function"
    },
    {
      "inputs": [
        {
          "internalType": "address",
          "name": "operator",
          "type": "address"
        },
        {
          "internalType": "bool",
          "name": "approved",
          "type": "bool"
        }
      ],
      "name": "setApprovalForAll",
      "outputs": [],
      "stateMutability": "nonpayable",
      "type": "function"
    },
    {
      "inputs": [
        {
          "internalType": "bytes4",
          "name": "interfaceId",
          "type": "bytes4"
        }
      ],
      "name": "supportsInterface",
      "outputs": [
        {
          "internalType": "bool",
          "name": "",
          "type": "bool"
        }
      ],
      "stateMutability": "view",
      "type": "function"
    },
    {
      "inputs": [],
      "name": "symbol",
      "outputs": [
        {
          "internalType": "string",
          "name": "",
          "type": "string"
        }
      ],
      "stateMutability": "view",
      "type": "function"
    },
    {
      "inputs": [
        {
          "internalType": "uint256",
          "name": "index",
          "type": "uint256"
        }
      ],
      "name": "tokenByIndex",
      "outputs": [
        {
          "internalType": "uint256",
          "name": "",
          "type": "uint256"
        }
      ],
      "stateMutability": "view",
      "type": "function"
    },
    {
      "inputs": [
        {
          "internalType": "address",
          "name": "owner",
          "type": "address"
        },
        {
          "internalType": "uint256",
          "name": "index",
          "type": "uint256"
        }
      ],
      "name": "tokenOfOwnerByIndex",
      "outputs": [
        {
          "internalType": "uint256",
          "name": "",
          "type": "uint256"
        }
      ],
      "stateMutability": "view",
      "type": "function"
    },
    {
      "inputs": [
        {
          "internalType": "uint256",
          "name": "tokenId",
          "type": "uint256"
        }
      ],
      "name": "tokenURI",
      "outputs": [
        {
          "internalType": "string",
          "name": "",
          "type": "string"
        }
      ],
      "stateMutability": "view",
      "type": "function"
    },
    {
      "inputs": [],
      "name": "totalSupply",
      "outputs": [
        {
          "internalType": "uint256",
          "name": "",
          "type": "uint256"
        }
      ],
      "stateMutability": "view",
      "type": "function"
    },
    {
      "inputs": [
        {
          "internalType": "address",
          "name": "from",
          "type": "address"
        },
        {
          "internalType": "address",
          "name": "to",
          "type": "address"
        },
        {
          "internalType": "uint256",
          "name": "tokenId",
          "type": "uint256"
        }
      ],
      "name": "transferFrom",
      "outputs": [],
      "stateMutability": "nonpayable",
      "type": "function"
    },
    {
      "inputs": [
        {
          "internalType": "address",
          "name": "newOwner",
          "type": "address"
        }
      ],
      "name": "transferOwnership",
      "outputs": [],
      "stateMutability": "nonpayable",
      "type": "function"
    }
  ],
  "bytecode": "0x60806040526001600c55348015610014575f80fd5b50336040518060400160405280600d81526020016c20b932b730a1b430b6b834b7b760991b815250604051806040016040528060068152602001650414348414d560d41b815250815f9081610069919061019e565b506001610076828261019e565b5050506001600160a01b0381166100a657604051631e4fbdf760e01b81525f600482015260240160405180910390fd5b6100af816100b5565b5061025d565b600a80546001600160a01b038381166001600160a01b0319831681179093556040519116919082907f8be0079c531659141344cd1fd0a4f28419497f9722a3daafe3b4186f6b6457e0905f90a35050565b634e487b7160e01b5f52604160045260245ffd5b600181811c9082168061012e57607f821691505b60208210810361014c57634e487b7160e01b5f52602260045260245ffd5b50919050565b601f82111561019957805f5260205f20601f840160051c810160208510156101775750805b601f840160051c820191505b81811015610196575f8155600101610183565b50505b505050565b81516001600160401b038111156101b7576101b7610106565b6101cb816101c5845461011a565b84610152565b602080601f8311600181146101fe575f84156101e75750858301515b5f19600386901b1c1916600185901b178555610255565b5f85815260208120601f198616915b8281101561022c5788860151825594840194600190910190840161020d565b508582101561024957878501515f19600388901b60f8161c191681555b505060018460011b0185555b505050505050565b6116f38061026a5f395ff3fe608060405234801561000f575f80fd5b5060043610610148575f3560e01c80636a627842116100bf578063b88d4fde11610079578063b88d4fde1461029d578063becc14f4146102b0578063c87b56dd146102e8578063d0bbef7a146102fb578063e985e9c51461034a578063f2fde38b1461035d575f80fd5b80636a6278421461024357806370a0823114610256578063715018a6146102695780638da5cb5b1461027157806395d89b4114610282578063a22cb4651461028a575f80fd5b806323b872dd1161011057806323b872dd146101db5780632f745c59146101ee57806342842e0e146102015780634f6ccce71461021457806361b8ce8c146102275780636352211e14610230575f80fd5b806301ffc9a71461014c57806306fdde0314610174578063081812fc14610189578063095ea7b3146101b457806318160ddd146101c9575b5f80fd5b61015f61015a36600461132d565b610370565b60405190151581526020015b60405180910390f35b61017c61039a565b60405161016b9190611376565b61019c610197366004611388565b610429565b6040516001600160a01b03909116815260200161016b565b6101c76101c23660046113b5565b610450565b005b6008545b60405190815260200161016b565b6101c76101e93660046113dd565b61045f565b6101cd6101fc3660046113b5565b6104ed565b6101c761020f3660046113dd565b610550565b6101cd610222366004611388565b61056f565b6101cd600c5481565b61019c61023e366004611388565b6105c4565b6101cd610251366004611416565b6105ce565b6101cd610264366004611416565b61078b565b6101c76107d0565b600a546001600160a01b031661019c565b61017c6107e3565b6101c761029836600461142f565b6107f2565b6101c76102ab36600461147c565b6107fd565b6102c36102be366004611388565b610815565b6040805182518152602080840151908201529181015160ff169082015260600161016b565b61017c6102f6366004611388565b610874565b61032c610309366004611388565b600b6020525f908152604090208054600182015460029092015490919060ff1683565b60408051938452602084019290925260ff169082015260600161016b565b61015f610358366004611551565b6108e5565b6101c761036b366004611416565b610912565b5f6001600160e01b0319821663780e9d6360e01b148061039457506103948261094f565b92915050565b60605f80546103a890611582565b80601f01602080910402602001604051908101604052809291908181526020018280546103d490611582565b801561041f5780601f106103f65761010080835404028352916020019161041f565b820191905f5260205f20905b81548152906001019060200180831161040257829003601f168201915b5050505050905090565b5f6104338261099e565b505f828152600460205260409020546001600160a01b0316610394565b61045b8282336109d6565b5050565b6001600160a01b03821661048d57604051633250574960e11b81525f60048201526024015b60405180910390fd5b5f6104998383336109e3565b9050836001600160a01b0316816001600160a01b0316146104e7576040516364283d7b60e01b81526001600160a01b0380861660048301526024820184905282166044820152606401610484565b50505050565b5f6104f78361078b565b82106105285760405163295f44f760e21b81526001600160a01b038416600482015260248101839052604401610484565b506001600160a01b03919091165f908152600660209081526040808320938352929052205490565b61056a83838360405180602001604052805f8152506107fd565b505050565b5f61057960085490565b82106105a15760405163295f44f760e21b81525f600482015260248101839052604401610484565b600882815481106105b4576105b46115ba565b905f5260205f2001549050919050565b5f6103948261099e565b5f6105d7610ab6565b600c546105e48382610ae3565b604080514260208201529081018290525f90603290606001604051602081830303815290604052805190602001205f1c61061e91906115ce565b610629906032611601565b90505f6032448460405160200161064a929190918252602082015260400190565b604051602081830303815290604052805190602001205f1c61066c91906115ce565b610677906032611601565b90505f8060644233876040516020016106b59392919092835260609190911b6bffffffffffffffffffffffff19166020830152603482015260540190565b604051602081830303815290604052805190602001205f1c6106d791906115ce565b905060328110156106eb5760019150610714565b604b8110156106fd5760029150610714565b605a81101561070f5760039150610714565b600491505b60408051606081018252858152602080820186815260ff8681168486019081525f8b8152600b90945294832093518455905160018085019190915593516002909301805460ff19169390911692909217909155600c8054909190610779908490611601565b9091555094955050505050505b919050565b5f6001600160a01b0382166107b5576040516322718ad960e21b81525f6004820152602401610484565b506001600160a01b03165f9081526003602052604090205490565b6107d8610ab6565b6107e15f610b44565b565b6060600180546103a890611582565b61045b338383610b95565b61080884848461045f565b6104e73385858585610c5c565b61083960405180606001604052805f81526020015f81526020015f60ff1681525090565b505f908152600b60209081526040918290208251606081018452815481526001820154928101929092526002015460ff169181019190915290565b606061087f8261099e565b505f61089560408051602081019091525f815290565b90505f8151116108b35760405180602001604052805f8152506108de565b806108bd84610d84565b6040516020016108ce92919061162b565b6040516020818303038152906040525b9392505050565b6001600160a01b039182165f90815260056020908152604080832093909416825291909152205460ff1690565b61091a610ab6565b6001600160a01b03811661094357604051631e4fbdf760e01b81525f6004820152602401610484565b61094c81610b44565b50565b5f6001600160e01b031982166380ac58cd60e01b148061097f57506001600160e01b03198216635b5e139f60e01b145b8061039457506301ffc9a760e01b6001600160e01b0319831614610394565b5f818152600260205260408120546001600160a01b03168061039457604051637e27328960e01b815260048101849052602401610484565b61056a8383836001610e14565b5f806109f0858585610f18565b90506001600160a01b038116610a4c57610a4784600880545f838152600960205260408120829055600182018355919091527ff3f7a9fe364faab93b216da50a3214154f22a0a2b415b23a84c8169e8b636ee30155565b610a6f565b846001600160a01b0316816001600160a01b031614610a6f57610a6f818561100a565b6001600160a01b038516610a8b57610a8684611087565b610aae565b846001600160a01b0316816001600160a01b031614610aae57610aae858561112e565b949350505050565b600a546001600160a01b031633146107e15760405163118cdaa760e01b8152336004820152602401610484565b6001600160a01b038216610b0c57604051633250574960e11b81525f6004820152602401610484565b5f610b1883835f6109e3565b90506001600160a01b0381161561056a576040516339e3563760e11b81525f6004820152602401610484565b600a80546001600160a01b038381166001600160a01b0319831681179093556040519116919082907f8be0079c531659141344cd1fd0a4f28419497f9722a3daafe3b4186f6b6457e0905f90a35050565b6001600160a01b038316610bbe5760405163a9fbf51f60e01b81525f6004820152602401610484565b6001600160a01b038216610bf057604051630b61174360e31b81526001600160a01b0383166004820152602401610484565b6001600160a01b038381165f81815260056020908152604080832094871680845294825291829020805460ff191686151590811790915591519182527f17307eab39ab6107e8899845ad3d59bd9653f200f220920489ca2b5937696c31910160405180910390a3505050565b6001600160a01b0383163b15610d7d57604051630a85bd0160e11b81526001600160a01b0384169063150b7a0290610c9e90889088908790879060040161163f565b6020604051808303815f875af1925050508015610cd8575060408051601f3d908101601f19168201909252610cd59181019061167b565b60015b610d3f573d808015610d05576040519150601f19603f3d011682016040523d82523d5f602084013e610d0a565b606091505b5080515f03610d3757604051633250574960e11b81526001600160a01b0385166004820152602401610484565b805160208201fd5b6001600160e01b03198116630a85bd0160e11b14610d7b57604051633250574960e11b81526001600160a01b0385166004820152602401610484565b505b5050505050565b60605f610d908361117c565b60010190505f8167ffffffffffffffff811115610daf57610daf611468565b6040519080825280601f01601f191660200182016040528015610dd9576020820181803683370190505b5090508181016020015b5f19016f181899199a1a9b1b9c1cb0b131b232b360811b600a86061a8153600a8504945084610de357509392505050565b8080610e2857506001600160a01b03821615155b15610ee9575f610e378461099e565b90506001600160a01b03831615801590610e635750826001600160a01b0316816001600160a01b031614155b8015610e765750610e7481846108e5565b155b15610e9f5760405163a9fbf51f60e01b81526001600160a01b0384166004820152602401610484565b8115610ee75783856001600160a01b0316826001600160a01b03167f8c5be1e5ebec7d5bd14f71427d1e84f3dd0314c0f7b2291e5b200ac8c7c3b92560405160405180910390a45b505b50505f90815260046020526040902080546001600160a01b0319166001600160a01b0392909216919091179055565b5f828152600260205260408120546001600160a01b0390811690831615610f4457610f44818486611253565b6001600160a01b03811615610f7e57610f5f5f855f80610e14565b6001600160a01b0381165f90815260036020526040902080545f190190555b6001600160a01b03851615610fac576001600160a01b0385165f908152600360205260409020805460010190555b5f8481526002602052604080822080546001600160a01b0319166001600160a01b0389811691821790925591518793918516917fddf252ad1be2c89b69c2b068fc378daa952ba7f163c4a11628f55a4df523b3ef91a4949350505050565b5f6110148361078b565b5f838152600760209081526040808320546001600160a01b0388168452600690925290912091925090818314611069575f83815260208281526040808320548584528184208190558352600790915290208290555b5f938452600760209081526040808620869055938552525081205550565b6008545f9061109890600190611696565b5f83815260096020526040812054600880549394509092849081106110bf576110bf6115ba565b905f5260205f200154905080600883815481106110de576110de6115ba565b5f918252602080832090910192909255828152600990915260408082208490558582528120556008805480611115576111156116a9565b600190038181905f5260205f20015f9055905550505050565b5f600161113a8461078b565b6111449190611696565b6001600160a01b039093165f908152600660209081526040808320868452825280832085905593825260079052919091209190915550565b5f8072184f03e93ff9f4daa797ed6e38ed64bf6a1f0160401b83106111ba5772184f03e93ff9f4daa797ed6e38ed64bf6a1f0160401b830492506040015b6d04ee2d6d415b85acef810000000083106111e6576d04ee2d6d415b85acef8100000000830492506020015b662386f26fc10000831061120457662386f26fc10000830492506010015b6305f5e100831061121c576305f5e100830492506008015b612710831061123057612710830492506004015b60648310611242576064830492506002015b600a83106103945760010192915050565b61125e8383836112b7565b61056a576001600160a01b03831661128c57604051637e27328960e01b815260048101829052602401610484565b60405163177e802f60e01b81526001600160a01b038316600482015260248101829052604401610484565b5f6001600160a01b03831615801590610aae5750826001600160a01b0316846001600160a01b031614806112f057506112f084846108e5565b80610aae5750505f908152600460205260409020546001600160a01b03908116911614919050565b6001600160e01b03198116811461094c575f80fd5b5f6020828403121561133d575f80fd5b81356108de81611318565b5f81518084528060208401602086015e5f602082860101526020601f19601f83011685010191505092915050565b602081525f6108de6020830184611348565b5f60208284031215611398575f80fd5b5035919050565b80356001600160a01b0381168114610786575f80fd5b5f80604083850312156113c6575f80fd5b6113cf8361139f565b946020939093013593505050565b5f805f606084860312156113ef575f80fd5b6113f88461139f565b92506114066020850161139f565b9150604084013590509250925092565b5f60208284031215611426575f80fd5b6108de8261139f565b5f8060408385031215611440575f80fd5b6114498361139f565b91506020830135801515811461145d575f80fd5b809150509250929050565b634e487b7160e01b5f52604160045260245ffd5b5f805f806080858703121561148f575f80fd5b6114988561139f565b93506114a66020860161139f565b925060408501359150606085013567ffffffffffffffff808211156114c9575f80fd5b818701915087601f8301126114dc575f80fd5b8135818111156114ee576114ee611468565b604051601f8201601f19908116603f0116810190838211818310171561151657611516611468565b816040528281528a602084870101111561152e575f80fd5b826020860160208301375f60208483010152809550505050505092959194509250565b5f8060408385031215611562575f80fd5b61156b8361139f565b91506115796020840161139f565b90509250929050565b600181811c9082168061159657607f821691505b6020821081036115b457634e487b7160e01b5f52602260045260245ffd5b50919050565b634e487b7160e01b5f52603260045260245ffd5b5f826115e857634e487b7160e01b5f52601260045260245ffd5b500690565b634e487b7160e01b5f52601160045260245ffd5b80820180821115610394576103946115ed565b5f81518060208401855e5f93019283525090919050565b5f610aae6116398386611614565b84611614565b6001600160a01b03858116825284166020820152604081018390526080606082018190525f9061167190830184611348565b9695505050505050565b5f6020828403121561168b575f80fd5b81516108de81611318565b81810381811115610394576103946115ed565b634e487b7160e01b5f52603160045260245ffdfea26469706673582212207440c71fe5d8cbf0f88c5ce6c8db2bdd7267a5b07b1b02a48fc2d9f4f836dc7564736f6c63430008190033",
  "linkReferences": {},
  "deployedLinkReferences": {}
}